{
  "contractName": "wallet_contract",
  "abi": [
    {
      "inputs": [
        {
          "internalType": "address[]",
          "name": "_owners",
          "type": "address[]"
        },
        {
          "internalType": "uint256",
          "name": "_req",
          "type": "uint256"
        }
      ],
      "stateMutability": "nonpayable",
      "type": "constructor"
    },
    {
      "anonymous": false,
      "inputs": [
        {
          "indexed": true,
          "internalType": "address",
          "name": "owner",
          "type": "address"
        },
        {
          "indexed": true,
          "internalType": "uint256",
          "name": "txIndex",
          "type": "uint256"
        }
      ],
      "name": "ConfirmTransaction",
      "type": "event"
    },
    {
      "anonymous": false,
      "inputs": [
        {
          "indexed": true,
          "internalType": "address",
          "name": "owner",
          "type": "address"
        },
        {
          "indexed": true,
          "internalType": "uint256",
          "name": "txIndex",
          "type": "uint256"
        }
      ],
      "name": "ExecuteTransaction",
      "type": "event"
    },
    {
      "anonymous": false,
      "inputs": [
        {
          "indexed": true,
          "internalType": "address",
          "name": "owner",
          "type": "address"
        },
        {
          "indexed": true,
          "internalType": "uint256",
          "name": "txIndex",
          "type": "uint256"
        },
        {
          "indexed": true,
          "internalType": "address",
          "name": "to",
          "type": "address"
        },
        {
          "indexed": false,
          "internalType": "uint256",
          "name": "value",
          "type": "uint256"
        },
        {
          "indexed": false,
          "internalType": "bytes",
          "name": "data",
          "type": "bytes"
        }
      ],
      "name": "SubmitTransaction",
      "type": "event"
    },
    {
      "inputs": [
        {
          "internalType": "uint256",
          "name": "",
          "type": "uint256"
        },
        {
          "internalType": "address",
          "name": "",
          "type": "address"
        }
      ],
      "name": "isConfirmed",
      "outputs": [
        {
          "internalType": "bool",
          "name": "",
          "type": "bool"
        }
      ],
      "stateMutability": "view",
      "type": "function",
      "constant": true
    },
    {
      "inputs": [],
      "name": "numConfirmationsRequired",
      "outputs": [
        {
          "internalType": "uint256",
          "name": "",
          "type": "uint256"
        }
      ],
      "stateMutability": "view",
      "type": "function",
      "constant": true
    },
    {
      "inputs": [
        {
          "internalType": "uint256",
          "name": "",
          "type": "uint256"
        }
      ],
      "name": "owners",
      "outputs": [
        {
          "internalType": "address",
          "name": "",
          "type": "address"
        }
      ],
      "stateMutability": "view",
      "type": "function",
      "constant": true
    },
    {
      "inputs": [
        {
          "internalType": "uint256",
          "name": "",
          "type": "uint256"
        }
      ],
      "name": "transactions",
      "outputs": [
        {
          "internalType": "address",
          "name": "to",
          "type": "address"
        },
        {
          "internalType": "uint256",
          "name": "value",
          "type": "uint256"
        },
        {
          "internalType": "bytes",
          "name": "data",
          "type": "bytes"
        },
        {
          "internalType": "bool",
          "name": "executed",
          "type": "bool"
        },
        {
          "internalType": "uint256",
          "name": "numConfirmations",
          "type": "uint256"
        }
      ],
      "stateMutability": "view",
      "type": "function",
      "constant": true
    },
    {
      "stateMutability": "payable",
      "type": "receive",
      "payable": true
    },
    {
      "inputs": [
        {
          "internalType": "address",
          "name": "_to",
          "type": "address"
        },
        {
          "internalType": "uint256",
          "name": "_value",
          "type": "uint256"
        },
        {
          "internalType": "bytes",
          "name": "_data",
          "type": "bytes"
        }
      ],
      "name": "submitTransaction",
      "outputs": [],
      "stateMutability": "nonpayable",
      "type": "function"
    },
    {
      "inputs": [
        {
          "internalType": "uint256",
          "name": "_txIndex",
          "type": "uint256"
        }
      ],
      "name": "confirmTransaction",
      "outputs": [],
      "stateMutability": "nonpayable",
      "type": "function"
    },
    {
      "inputs": [
        {
          "internalType": "uint256",
          "name": "_txIndex",
          "type": "uint256"
        }
      ],
      "name": "executeTransaction",
      "outputs": [],
      "stateMutability": "nonpayable",
      "type": "function"
    },
    {
      "inputs": [
        {
          "internalType": "uint256",
          "name": "_i",
          "type": "uint256"
        }
      ],
      "name": "getTransaction",
      "outputs": [
        {
          "internalType": "address",
          "name": "to",
          "type": "address"
        },
        {
          "internalType": "uint256",
          "name": "value",
          "type": "uint256"
        },
        {
          "internalType": "bytes",
          "name": "data",
          "type": "bytes"
        },
        {
          "internalType": "bool",
          "name": "executed",
          "type": "bool"
        },
        {
          "internalType": "uint256",
          "name": "numC",
          "type": "uint256"
        }
      ],
      "stateMutability": "view",
      "type": "function",
      "constant": true
    },
    {
      "inputs": [],
      "name": "getTransactionCount",
      "outputs": [
        {
          "internalType": "uint256",
          "name": "",
          "type": "uint256"
        }
      ],
      "stateMutability": "view",
      "type": "function",
      "constant": true
    }
  ],
  "bytecode": "0x60806040523480156200001157600080fd5b5060405162001b6638038062001b668339818101604052810190620000379190620003ae565b60008251116200007e576040517f08c379a0000000000000000000000000000000000000000000000000000000008152600401620000759062000475565b60405180910390fd5b60008111801562000090575081518111155b620000d2576040517f08c379a0000000000000000000000000000000000000000000000000000000008152600401620000c990620004e7565b60405180910390fd5b60005b825181101562000175576000838281518110620000f757620000f662000509565b5b60200260200101519080600181540180825580915050600190039060005260206000200160009091909190916101000a81548173ffffffffffffffffffffffffffffffffffffffff021916908373ffffffffffffffffffffffffffffffffffffffff16021790555080806200016c9062000567565b915050620000d5565b50806001819055505050620005b4565b6000604051905090565b600080fd5b600080fd5b600080fd5b6000601f19601f8301169050919050565b7f4e487b7100000000000000000000000000000000000000000000000000000000600052604160045260246000fd5b620001e9826200019e565b810181811067ffffffffffffffff821117156200020b576200020a620001af565b5b80604052505050565b60006200022062000185565b90506200022e8282620001de565b919050565b600067ffffffffffffffff821115620002515762000250620001af565b5b602082029050602081019050919050565b600080fd5b600073ffffffffffffffffffffffffffffffffffffffff82169050919050565b6000620002948262000267565b9050919050565b620002a68162000287565b8114620002b257600080fd5b50565b600081519050620002c6816200029b565b92915050565b6000620002e3620002dd8462000233565b62000214565b9050808382526020820190506020840283018581111562000309576200030862000262565b5b835b81811015620003365780620003218882620002b5565b8452602084019350506020810190506200030b565b5050509392505050565b600082601f83011262000358576200035762000199565b5b81516200036a848260208601620002cc565b91505092915050565b6000819050919050565b620003888162000373565b81146200039457600080fd5b50565b600081519050620003a8816200037d565b92915050565b60008060408385031215620003c857620003c76200018f565b5b600083015167ffffffffffffffff811115620003e957620003e862000194565b5b620003f78582860162000340565b92505060206200040a8582860162000397565b9150509250929050565b600082825260208201905092915050565b7f6174206c65617374206f6e65206f776e65720000000000000000000000000000600082015250565b60006200045d60128362000414565b91506200046a8262000425565b602082019050919050565b6000602082019050818103600083015262000490816200044e565b9050919050565b7f696e76616c696420636f6e6669726d6174696f6e730000000000000000000000600082015250565b6000620004cf60158362000414565b9150620004dc8262000497565b602082019050919050565b600060208201905081810360008301526200050281620004c0565b9050919050565b7f4e487b7100000000000000000000000000000000000000000000000000000000600052603260045260246000fd5b7f4e487b7100000000000000000000000000000000000000000000000000000000600052601160045260246000fd5b6000620005748262000373565b91507fffffffffffffffffffffffffffffffffffffffffffffffffffffffffffffffff8203620005a957620005a862000538565b5b600182019050919050565b6115a280620005c46000396000f3fe60806040526004361061008a5760003560e01c80639ace38c2116100595780639ace38c21461017c578063c01a8c84146101bd578063c6427474146101e6578063d0549b851461020f578063ee22610b1461023a57610091565b8063025e7c27146100965780632e7700f0146100d357806333ea3dc8146100fe57806380f59a651461013f57610091565b3661009157005b600080fd5b3480156100a257600080fd5b506100bd60048036038101906100b89190610ae3565b610263565b6040516100ca9190610b51565b60405180910390f35b3480156100df57600080fd5b506100e86102a2565b6040516100f59190610b7b565b60405180910390f35b34801561010a57600080fd5b5061012560048036038101906101209190610ae3565b6102af565b604051610136959493929190610c41565b60405180910390f35b34801561014b57600080fd5b5061016660048036038101906101619190610cc7565b6103c2565b6040516101739190610d07565b60405180910390f35b34801561018857600080fd5b506101a3600480360381019061019e9190610ae3565b6103f1565b6040516101b4959493929190610c41565b60405180910390f35b3480156101c957600080fd5b506101e460048036038101906101df9190610ae3565b6104ec565b005b3480156101f257600080fd5b5061020d60048036038101906102089190610e57565b610716565b005b34801561021b57600080fd5b50610224610893565b6040516102319190610b7b565b60405180910390f35b34801561024657600080fd5b50610261600480360381019061025c9190610ae3565b610899565b005b6000818154811061027357600080fd5b906000526020600020016000915054906101000a900473ffffffffffffffffffffffffffffffffffffffff1681565b6000600280549050905090565b60008060606000806000600287815481106102cd576102cc610ec6565b5b906000526020600020906005020190508060000160009054906101000a900473ffffffffffffffffffffffffffffffffffffffff168160010154826002018360030160009054906101000a900460ff16846004015482805461032e90610f24565b80601f016020809104026020016040519081016040528092919081815260200182805461035a90610f24565b80156103a75780601f1061037c576101008083540402835291602001916103a7565b820191906000526020600020905b81548152906001019060200180831161038a57829003601f168201915b50505050509250955095509550955095505091939590929450565b60036020528160005260406000206020528060005260406000206000915091509054906101000a900460ff1681565b6002818154811061040157600080fd5b90600052602060002090600502016000915090508060000160009054906101000a900473ffffffffffffffffffffffffffffffffffffffff169080600101549080600201805461045090610f24565b80601f016020809104026020016040519081016040528092919081815260200182805461047c90610f24565b80156104c95780601f1061049e576101008083540402835291602001916104c9565b820191906000526020600020905b8154815290600101906020018083116104ac57829003601f168201915b5050505050908060030160009054906101000a900460ff16908060040154905085565b6002805490508110610533576040517f08c379a000000000000000000000000000000000000000000000000000000000815260040161052a90610fb2565b60405180910390fd5b60006002828154811061054957610548610ec6565b5b906000526020600020906005020190508060030160009054906101000a900460ff16156105ab576040517f08c379a00000000000000000000000000000000000000000000000000000000081526004016105a29061101e565b60405180910390fd5b6003600083815260200190815260200160002060003373ffffffffffffffffffffffffffffffffffffffff1673ffffffffffffffffffffffffffffffffffffffff16815260200190815260200160002060009054906101000a900460ff1615610649576040517f08c379a00000000000000000000000000000000000000000000000000000000081526004016106409061108a565b60405180910390fd5b60016003600084815260200190815260200160002060003373ffffffffffffffffffffffffffffffffffffffff1673ffffffffffffffffffffffffffffffffffffffff16815260200190815260200160002060006101000a81548160ff02191690831515021790555060018160040160008282546106c791906110d9565b92505081905550813373ffffffffffffffffffffffffffffffffffffffff167f5cbe105e36805f7820e291f799d5794ff948af2a5f664e580382defb6339004160405160405180910390a35050565b60026040518060a001604052808573ffffffffffffffffffffffffffffffffffffffff1681526020018481526020018381526020016000151581526020016000815250908060018154018082558091505060019003906000526020600020906005020160009091909190915060008201518160000160006101000a81548173ffffffffffffffffffffffffffffffffffffffff021916908373ffffffffffffffffffffffffffffffffffffffff1602179055506020820151816001015560408201518160020190816107e891906112b9565b5060608201518160030160006101000a81548160ff0219169083151502179055506080820151816004015550508273ffffffffffffffffffffffffffffffffffffffff16600160028054905061083e919061138b565b3373ffffffffffffffffffffffffffffffffffffffff167fd5a05bf70715ad82a09a756320284a1b54c9ff74cd0f8cce6219e79b563fe59d85856040516108869291906113bf565b60405180910390a4505050565b60015481565b6000600282815481106108af576108ae610ec6565b5b906000526020600020906005020190508060030160009054906101000a900460ff1615610911576040517f08c379a00000000000000000000000000000000000000000000000000000000081526004016109089061101e565b60405180910390fd5b6001548160040154101561095a576040517f08c379a00000000000000000000000000000000000000000000000000000000081526004016109519061143b565b60405180910390fd5b60018160030160006101000a81548160ff02191690831515021790555060008160000160009054906101000a900473ffffffffffffffffffffffffffffffffffffffff1673ffffffffffffffffffffffffffffffffffffffff168260010154836002016040516109ca91906114e9565b60006040518083038185875af1925050503d8060008114610a07576040519150601f19603f3d011682016040523d82523d6000602084013e610a0c565b606091505b5050905080610a50576040517f08c379a0000000000000000000000000000000000000000000000000000000008152600401610a479061154c565b60405180910390fd5b823373ffffffffffffffffffffffffffffffffffffffff167f5445f318f4f5fcfb66592e68e0cc5822aa15664039bd5f0ffde24c5a8142b1ac60405160405180910390a3505050565b6000604051905090565b600080fd5b600080fd5b6000819050919050565b610ac081610aad565b8114610acb57600080fd5b50565b600081359050610add81610ab7565b92915050565b600060208284031215610af957610af8610aa3565b5b6000610b0784828501610ace565b91505092915050565b600073ffffffffffffffffffffffffffffffffffffffff82169050919050565b6000610b3b82610b10565b9050919050565b610b4b81610b30565b82525050565b6000602082019050610b666000830184610b42565b92915050565b610b7581610aad565b82525050565b6000602082019050610b906000830184610b6c565b92915050565b600081519050919050565b600082825260208201905092915050565b60005b83811015610bd0578082015181840152602081019050610bb5565b60008484015250505050565b6000601f19601f8301169050919050565b6000610bf882610b96565b610c028185610ba1565b9350610c12818560208601610bb2565b610c1b81610bdc565b840191505092915050565b60008115159050919050565b610c3b81610c26565b82525050565b600060a082019050610c566000830188610b42565b610c636020830187610b6c565b8181036040830152610c758186610bed565b9050610c846060830185610c32565b610c916080830184610b6c565b9695505050505050565b610ca481610b30565b8114610caf57600080fd5b50565b600081359050610cc181610c9b565b92915050565b60008060408385031215610cde57610cdd610aa3565b5b6000610cec85828601610ace565b9250506020610cfd85828601610cb2565b9150509250929050565b6000602082019050610d1c6000830184610c32565b92915050565b600080fd5b600080fd5b7f4e487b7100000000000000000000000000000000000000000000000000000000600052604160045260246000fd5b610d6482610bdc565b810181811067ffffffffffffffff82111715610d8357610d82610d2c565b5b80604052505050565b6000610d96610a99565b9050610da28282610d5b565b919050565b600067ffffffffffffffff821115610dc257610dc1610d2c565b5b610dcb82610bdc565b9050602081019050919050565b82818337600083830152505050565b6000610dfa610df584610da7565b610d8c565b905082815260208101848484011115610e1657610e15610d27565b5b610e21848285610dd8565b509392505050565b600082601f830112610e3e57610e3d610d22565b5b8135610e4e848260208601610de7565b91505092915050565b600080600060608486031215610e7057610e6f610aa3565b5b6000610e7e86828701610cb2565b9350506020610e8f86828701610ace565b925050604084013567ffffffffffffffff811115610eb057610eaf610aa8565b5b610ebc86828701610e29565b9150509250925092565b7f4e487b7100000000000000000000000000000000000000000000000000000000600052603260045260246000fd5b7f4e487b7100000000000000000000000000000000000000000000000000000000600052602260045260246000fd5b60006002820490506001821680610f3c57607f821691505b602082108103610f4f57610f4e610ef5565b5b50919050565b600082825260208201905092915050565b7f696e76616c696420747820696e64657800000000000000000000000000000000600082015250565b6000610f9c601083610f55565b9150610fa782610f66565b602082019050919050565b60006020820190508181036000830152610fcb81610f8f565b9050919050565b7f616c726561647920657865637574656400000000000000000000000000000000600082015250565b6000611008601083610f55565b915061101382610fd2565b602082019050919050565b6000602082019050818103600083015261103781610ffb565b9050919050565b7f616c726561647920636f6e6669726d6564000000000000000000000000000000600082015250565b6000611074601183610f55565b915061107f8261103e565b602082019050919050565b600060208201905081810360008301526110a381611067565b9050919050565b7f4e487b7100000000000000000000000000000000000000000000000000000000600052601160045260246000fd5b60006110e482610aad565b91506110ef83610aad565b9250828201905080821115611107576111066110aa565b5b92915050565b60008190508160005260206000209050919050565b60006020601f8301049050919050565b600082821b905092915050565b60006008830261116f7fffffffffffffffffffffffffffffffffffffffffffffffffffffffffffffffff82611132565b6111798683611132565b95508019841693508086168417925050509392505050565b6000819050919050565b60006111b66111b16111ac84610aad565b611191565b610aad565b9050919050565b6000819050919050565b6111d08361119b565b6111e46111dc826111bd565b84845461113f565b825550505050565b600090565b6111f96111ec565b6112048184846111c7565b505050565b5b818110156112285761121d6000826111f1565b60018101905061120a565b5050565b601f82111561126d5761123e8161110d565b61124784611122565b81016020851015611256578190505b61126a61126285611122565b830182611209565b50505b505050565b600082821c905092915050565b600061129060001984600802611272565b1980831691505092915050565b60006112a9838361127f565b9150826002028217905092915050565b6112c282610b96565b67ffffffffffffffff8111156112db576112da610d2c565b5b6112e58254610f24565b6112f082828561122c565b600060209050601f8311600181146113235760008415611311578287015190505b61131b858261129d565b865550611383565b601f1984166113318661110d565b60005b8281101561135957848901518255600182019150602085019450602081019050611334565b868310156113765784890151611372601f89168261127f565b8355505b6001600288020188555050505b505050505050565b600061139682610aad565b91506113a183610aad565b92508282039050818111156113b9576113b86110aa565b5b92915050565b60006040820190506113d46000830185610b6c565b81810360208301526113e68184610bed565b90509392505050565b7f6e6f7420656e6f75676820636f6e6669726d6174696f6e730000000000000000600082015250565b6000611425601883610f55565b9150611430826113ef565b602082019050919050565b6000602082019050818103600083015261145481611418565b9050919050565b600081905092915050565b6000815461147381610f24565b61147d818661145b565b9450600182166000811461149857600181146114ad576114e0565b60ff19831686528115158202860193506114e0565b6114b68561110d565b60005b838110156114d8578154818901526001820191506020810190506114b9565b838801955050505b50505092915050565b60006114f58284611466565b915081905092915050565b7f7478206661696c65640000000000000000000000000000000000000000000000600082015250565b6000611536600983610f55565b915061154182611500565b602082019050919050565b6000602082019050818103600083015261156581611529565b905091905056fea26469706673582212204771eb1a346ecf17fd93a3990c50eac075fcb5333c5c83390ec8948edd55259964736f6c63430008110033",
  "immutableReferences": {},
  "source": "// SPDX-License-Identifier: MIT\r\npragma solidity ^0.8.17;\r\n\r\ncontract wallet_contract {\r\n    /*  storage  */\r\n    address[] public owners;\r\n    uint256   public numConfirmationsRequired;\r\n\r\n    struct Transaction {\r\n        address to;\r\n        uint256 value;\r\n        bytes   data;\r\n        bool    executed;\r\n        uint256 numConfirmations;\r\n    }\r\n\r\n    Transaction[] public transactions;\r\n    mapping(uint256 => mapping(address => bool)) public isConfirmed;\r\n\r\n    /*  events  */\r\n    event SubmitTransaction(\r\n        address indexed owner,\r\n        uint256 indexed txIndex,\r\n        address indexed to,\r\n        uint256 value,\r\n        bytes   data\r\n    );\r\n    event ConfirmTransaction(address indexed owner, uint256 indexed txIndex);\r\n    event ExecuteTransaction(address indexed owner, uint256 indexed txIndex);\r\n\r\n    /*  constructor  */\r\n  constructor(address[] memory _owners, uint256 _req) {\r\n    require(_owners.length > 0,                \"at least one owner\");\r\n    require(_req > 0 && _req <= _owners.length,\"invalid confirmations\");\r\n\r\n    for (uint i = 0; i < _owners.length; i++) {\r\n        owners.push(_owners[i]);\r\n    }\r\n\r\n    numConfirmationsRequired = _req;\r\n}\r\n\r\n\r\n    /*  actions  */\r\n    function submitTransaction(address _to, uint256 _value, bytes memory _data)\r\n        external\r\n    {\r\n        transactions.push(\r\n            Transaction({\r\n                to:    _to,\r\n                value: _value,\r\n                data:  _data,\r\n                executed:       false,\r\n                numConfirmations: 0\r\n            })\r\n        );\r\n\r\n        emit SubmitTransaction(msg.sender, transactions.length - 1, _to, _value, _data);\r\n    }\r\n\r\n    function confirmTransaction(uint256 _txIndex) external {\r\n        require(_txIndex < transactions.length, \"invalid tx index\");\r\n        Transaction storage t = transactions[_txIndex];\r\n        require(!t.executed, \"already executed\");\r\n        require(!isConfirmed[_txIndex][msg.sender], \"already confirmed\");\r\n\r\n        isConfirmed[_txIndex][msg.sender] = true;\r\n        t.numConfirmations += 1;\r\n\r\n        emit ConfirmTransaction(msg.sender, _txIndex);\r\n    }\r\n\r\n    function executeTransaction(uint256 _txIndex) external {\r\n        Transaction storage t = transactions[_txIndex];\r\n        require(!t.executed,                              \"already executed\");\r\n        require(t.numConfirmations >= numConfirmationsRequired, \"not enough confirmations\");\r\n\r\n        t.executed = true;\r\n        (bool ok, ) = t.to.call{value: t.value}(t.data);\r\n        require(ok, \"tx failed\");\r\n\r\n        emit ExecuteTransaction(msg.sender, _txIndex);\r\n    }\r\n\r\n    /*  helpers (view)  */\r\n    function getTransaction(uint256 _i) external view\r\n        returns (address to, uint256 value, bytes memory data, bool executed, uint256 numC)\r\n    {\r\n        Transaction storage t = transactions[_i];\r\n        return (t.to, t.value, t.data, t.executed, t.numConfirmations);\r\n    }\r\n\r\n    function getTransactionCount() external view returns (uint256) {\r\n        return transactions.length;\r\n    }\r\n\r\n    receive() external payable {}\r\n}\r\n",
  "sourcePath": "/Users/raffaele/Downloads/Eth_walletSIM 2/truffle/contracts/wallet_contract.sol",
  "compiler": {
    "name": "solc",
    "version": "0.8.17+commit.8df45f5f.Emscripten.clang"
  },
  "schemaVersion": "3.4.16",
  "updatedAt": "2025-07-14T12:14:57.499Z",
  "networkType": "ethereum",
  "devdoc": {
    "kind": "dev",
    "methods": {},
    "version": 1
  },
  "userdoc": {
    "kind": "user",
    "methods": {},
    "version": 1
  }
}